:020000040800F2
:10000000300900209D0500088102000883020008D5
:100010008F0200089B020008A702000800000000F1
:10002000000000000000000000000000B302000813
:10003000B502000800000000B3050008B702000880
:10004000B7050008B7050008B7050008BB0200089F
:10005000B7050008B7050008B9020008B705000891
:10006000B7050008B7050008B7050008B705000880
:10007000B7050008B7050008B7050008B705000870
:10008000B7050008B7050008B7050008B705000860
:10009000B7050008B7050008B7050008B705000850
:1000A000B7050008B7050008B7050008B705000840
:1000B000B7050008B7050008B7050008B705000830
:1000C000B7050008B7050008B7050008B705000820
:1000D000B70500082B1900082B3B0008B7050008DE
:1000E000B7050008B7050008B7050008B705000800
:1000F000B7050008B7050008B7050008B7050008F0
:10010000B7050008B7050008B7050008B7050008DF
:10011000B7050008B7050008B7050008B7050008CF
:10012000B7050008B7050008B7050008B7050008BF
:1001300000F002F800F094F80AA090E8000C824465
:100140008344AAF10107DA4501D100F089F8AFF242
:10015000090EBAE80F0013F0010F18BFFB1A43F0A5
:10016000010318477C6200009C620000103A24BF23
:1001700078C878C1FAD8520724BF30C830C144BF0C
:1001800004680C607047000000230024002500264E
:10019000103A28BF78C1FBD8520728BF30C148BFEA
:1001A0000B6070476E2904F00B81702904F079848C
:1001B000662906F0A780652906F0A480672906F065
:1001C000A1806129AFF3008003681B0A28BF41F0BA
:1001D0008001692903F00286642903F0FF857529EF
:1001E00003F0FC856F2904F00684782904F0458427
:1001F000E92904F0A183E42904F09E83F52904F0A1
:100200009B83EF2904F00384F82904F044840368F5
:10021000DB0928BF41F08001632904F022837329A0
:1002200004F02783E32904F02B85F32904F03085BB
:10023000002070471FB59DE8030003F0F9FF04F0AC
:1002400071FC04000020002105F072FA401C60607F
:100250000020002105F056FAE0601FBD10B510BD6A
:1002600004F0B0FD1146FFF7E5FF02F026F804F0B8
:10027000D7FD03B4FFF7F2FF03BC04F047FE000014
:1002800070470EA11C4801F02CFB00BFFEE71BA12C
:10029000194801F026FB00BFFEE727A1164801F030
:1002A00020FB00BFFEE733A1134801F01AFB00BF9B
:1002B000FEE7704770477047704770470D0A2A2A5B
:1002C0002A2A2A2A2A2A2A2A2A2A2A2A2A2A2A2A8E
:1002D0002A486172644661756C745F48616E646C33
:1002E00065722A2A2A2A2A2A2A2A2A2A2A2A2A2AEB
:1002F0002A2A2A2A2A0D0A00003801400D0A2A2A31
:100300002A2A2A2A2A2A2A2A2A2A2A2A2A2A2A2A4D
:100310002A4D656D4D616E6167655F48616E646C05
:1003200065722A2A2A2A2A2A2A2A2A2A2A2A2A2AAA
:100330002A2A2A2A2A0D0A000D0A2A2A2A2A2A2AC1
:100340002A2A2A2A2A2A2A2A2A2A2A2A2A42757361
:100350004661756C745F48616E646C65722A2A2A06
:100360002A2A2A2A2A2A2A2A2A2A2A2A2A2A2A2AED
:100370000D0A00000D0A2A2A2A2A2A2A2A2A2A2AAB
:100380002A2A2A2A2A2A2A2A2A5573616765466157
:10039000756C745F48616E646C65722A2A2A2A2A19
:1003A0002A2A2A2A2A2A2A2A2A2A2A2A2A2A0D0AEA
:1003B000000000000CB50020019000906C4800681F
:1003C00040F480306A49086000BF6948006800F462
:1003D000003000900198401C0190009818B90198D5
:1003E000B0F5A06FF1D16248006800F4003010B1A0
:1003F0000120009001E0002000900098012843D1E6
:100400005C48006840F010005A49086008460068DF
:1004100020F0030008600846006840F00200086011
:10042000534840685249486008464068486008465A
:10043000406840F4806048600846406820F47C10C2
:1004400048600846406840F48810486008460068E4
:1004500040F08070086000BF4548006800F0007000
:100460000028F9D04248406820F003004049486025
:100470000846406840F00200486000BF3C484068C1
:1004800000F00C000828F9D10CBD10B5FFF792FF61
:1004900010BD10B53648006840F0010034490860CE
:1004A00008464068344908403149486008460068B9
:1004B000324908402E4908600846006820F4802030
:1004C00008600846406820F4FE0048604FF41F00B2
:1004D0008860FFF7DAFF4FF000602949086010BD1F
:1004E00010B5002100200022214B5B6803F00C01B5
:1004F00021B1042906D0082928D107E0214B224C3C
:10050000236027E0214B204C236023E0184B5B68DD
:1005100003F47010164B5B6803F48032022303EB84
:10052000904022B91A4B4343174C23600DE0104B07
:100530005B6803F4003323B1164B4343124C236032
:1005400003E0124B4343104C236003E00D4B0E4C71
:10055000236000BF00BF064B5B68C3F303130E4C60
:10056000E15C094B1B68CB40074C236010BD0000C9
:1005700000100240002002400000FFF8FFFFF6FEDE
:1005800008ED00E000127A0000000020001BB70018
:1005900000093D00808D5B00040000200948804771
:1005A00009480047FEE7FEE7FEE7FEE7FEE7FEE755
:1005B000FEE7FEE7FEE7FEE704480549054A064B6D
:1005C000704700009304000831010008300100204A
:1005D000300900203005002030050020314901435A
:1005E000314A1160704770B5002100230F22C47892
:1005F00004B32D4C246804F4E064C4F5E064210ADB
:10060000C1F10403CA40447804FA03F18478144029
:1006100021430901254C0678A155047804F01F05F3
:100620000124AC4005786D11AD0005F1E025C5F859
:10063000004109E0047804F01F050124AC401C4D82
:100640000678761145F8264070BD1A4A0A400243E2
:10065000154B1B1F1A60704739B1134A121D1268DF
:100660000243114B1B1D1A6006E00F4A121D12684F
:1006700082430D4B1B1D1A607047042808D14FF0B0
:10068000E021096941F004014FF0E022116107E027
:100690004FF0E021096921F004014FF0E0221161DF
:1006A000704700000000FA050CED00E000E400E0F7
:1006B00080E100E080FFFF1F10B50446CC48844273
:1006C00008D10121042000F02DFB0021042000F0BE
:1006D00029FB46E0C748844208D10121082000F0E8
:1006E00021FB0021082000F01DFB3AE0C2488442B3
:1006F00008D10121102000F015FB0021102000F08E
:1007000011FB2EE0BD48844208D10121202000F0D9
:1007100009FB0021202000F005FB22E0B8488442BC
:1007200008D10121402000F0FDFA0021402000F016
:10073000F9FA16E0B348844208D10121802000F084
:10074000F1FA0021802000F0EDFA0AE0AE48844280
:1007500007D10121801500F0E5FA0021A01500F075
:10076000E1FA10BD10B50121084600F0DBFA0021C6
:10077000012000F0D7FA10BD2DE9F0410246002516
:100780000026002000230024002791F803C00CF06D
:100790000F0591F803C00CF0100CBCF1000F03D052
:1007A00091F802C04CEA050591F800C0BCF1000FB9
:1007B00031D0146800202BE04FF0010C0CFA00F34C
:1007C000B1F800C00CEA03069E4220D183004FF02E
:1007D0000F0C0CFA03F7BC4305FA03FC4CEA0404C3
:1007E00091F803C0BCF1280F06D14FF0010C0CFAB0
:1007F00000FCC2F814C00AE091F803C0BCF1480F35
:1008000005D14FF0010C0CFA00FCC2F810C0401CDE
:100810000828D1D31460B1F800C0BCF1FF0F34DD5B
:10082000546800202EE000F1080C4FF0010808FA8F
:100830000CF3B1F800C00CEA03069E4221D18300FC
:100840004FF00F0C0CFA03F7BC4305FA03FC4CEA1B
:10085000040491F803C0BCF1280F05D100F1080C85
:1008600008FA0CF8C2F8148091F803C0BCF1480FE4
:1008700007D100F1080C4FF0010808FA0CF8C2F893
:100880001080401C0828CED35460BDE8F0814FF69C
:10089000FF710180022181700421C17070470246FE
:1008A000002093680B400BB1012000E0002070474E
:1008B0000146886880B2704702460020D3680B402A
:1008C0000BB1012000E0002070470146C86880B2EB
:1008D000704701617047416170470AB1016100E0F2
:1008E00041617047C16070474FF480320A438261B2
:1008F0008161826182698269704702460020434BB0
:1009000018684FF68073184040EA021008433F4BC6
:10091000186070473E49C8617047F0B50A46002329
:1009200000240021002500F00046B6F1004F02D15E
:10093000364EF16901E0354E7168C0F3034583B26C
:1009400000F44016B6F5401F08D121F070612F4E1B
:10095000766826F070662D4F7E6012E000F48016F7
:10096000B6F5801F06D1032606FA05F4A14341F02F
:10097000706106E0460D360103FA06F6B14341F018
:10098000706122B1460D360103FA06F6314300F0DC
:100990000046B6F1004F02D11C4EF16101E01B4E42
:1009A0007160F0BD30B500228B071C0F0F2303FAD6
:1009B00004F2164B08338C1053F824309343134C35
:1009C00008348D1044F8253023468C1053F8243019
:1009D0008C07240F00FA04F423430C4C08348D10C8
:1009E00044F8253030BD0A49DC310860704700000A
:1009F00000080140000C01400010014000140140BB
:100A000000180140001C014000200140000001408E
:100A100000002042DF48006840F00100DD49086026
:100A200008464068DC490840DA49486008460068E2
:100A3000DA490840D74908600846006820F4802059
:100A400008600846406820F4FE0048604FF41F002C
:100A500088607047CF49096821F48031CD4A116020
:100A60001146096821F480211160B0F5803F03D060
:100A7000B0F5802F0ED106E0C649096841F48031F7
:100A8000C44A116007E0C349096841F4A021C14A82
:100A9000116000E000BF00BF704710B501460022A2
:100AA000002300204A11012A02D1BA4C236806E033
:100AB000022A02D1B74C236A01E0B64C636A01F006
:100AC0001F02012494401C400CB1012000E00020D2
:100AD00010BD38B5002000900024002500BF312053
:100AE000FFF7DBFF05460098401C00900098B0F52A
:100AF000A06F01D0002DF2D03120FFF7CEFF08B15A
:100B0000012400E00024204638BD01460020A14A0F
:100B1000106820F0F80040EAC10010607047A0495A
:100B200008607047024600209A4B586820F47C10F9
:100B300042EA01031843974B58607047984908668A
:100B4000704701460020934A506820F00300084394
:100B5000506070478F48406800F00C0070470146B5
:100B600000208C4A506820F0F00008435060704725
:100B700001460020874A506820F4E0600843506036
:100B8000704701460020834A506820F4605040EAD4
:100B9000C1005060704729B17E4A527A02437D4BB2
:100BA0005A7204E07B4A527A82437A4B5A727047F7
:100BB0007B49D8310860704701460020754A50686B
:100BC00020F440400843506070470021714A2032B1
:100BD0001170704A82F82010012802D004280AD12E
:100BE00004E001216B4A2032117005E00521694AB9
:100BF0002032117000E000BF00BF704769490860F3
:100C000070476449096A0143624A11627047654945
:100C100044390860704730B50021002200240023C9
:100C20005C4D6D6805F00C0121B1042905D008293F
:100C300023D105E05C4D056022E05C4D05601FE0BE
:100C4000544D6D6805F47012524D6D6805F4803492
:100C5000022505EB92421CB9554D554305600BE04A
:100C60004C4D6D6805F400351DB1524D554305607E
:100C700002E04E4D5543056002E04B4D056000BF5C
:100C800000BF444D6D6805F0F00109094A4D6B5CE9
:100C90000568DD4045603F4D6D6805F4E061090A77
:100CA000454D6B5C4568DD4085603A4D6D6805F4E7
:100CB0006051C90A404D6B5C4568DD40C560354DEB
:100CC0006D6805F44041890B3C4D6B5CC568B5FB14
:100CD000F3F5056130BD29B12E4A526902432D4B0F
:100CE0005A6104E02B4A526982432A4B5A61704789
:100CF00029B1284A92690243264B9A6104E0254AA9
:100D000092698243234B9A61704729B1214AD26983
:100D10000243204BDA6104E01E4AD26982431D4B34
:100D2000DA61704729B11B4AD2680243194BDA6075
:100D300004E0184AD2688243164BDA60704729B142
:100D4000144A12690243134B1A6104E0114A1269F2
:100D50008243104B1A61704712494039086070474E
:100D60000F49C86470470B49C87170470948406A09
:100D700040F0807007494862704701460020054AEC
:100D800092680A400AB1012000E000207047014942
:100D900088727047001002400000FFF8FFFFF6FE67
:100DA000000042428004424200127A00001BB70059
:100DB00000093D00808D5B0014000020240000200D
:100DC00010B50446FB48844209D101218803FFF78E
:100DD000A9FF00214FF48040FFF7A4FF32E0F6485E
:100DE000844209D101214804FFF7A9FF00214FF4F3
:100DF0000030FFF7A4FF25E0F048844209D101212B
:100E00008804FFF79CFF00214FF48020FFF797FF35
:100E100018E0EB48844209D10121C804FFF78FFF95
:100E200000214FF40020FFF78AFF0BE0E5488442E1
:100E300008D101210805FFF782FF00214FF480103F
:100E4000FFF77DFF10BD2DE9F04786B005460E4641
:100E50000024A24600BFA1460027B08900B100BF10
:100E60002F462C8A4CF6FF700440F08804432C82F5
:100E7000AC894EF6F3100440B0883189084371897B
:100E800008430443AC81AC8A4FF6FF400440B0896C
:100E90000443AC8201A8FFF7BEFEC648874202D1D8
:100EA000DDF810A001E0DDF80CA0A88900F40040F6
:100EB00040B10AEBCA0000EB0A1031684900B0FBF0
:100EC000F1F807E00AEBCA0000EB0A10316889006C
:100ED000B0FBF1F86420B8FBF0F0040120096421B4
:100EE00001FB1089A88900F4004040B1322000EBDA
:100EF000C900B0FBF1F000F00700044308E0322025
:100F000000EB09106421B0FBF1F000F00F00044386
:100F10002C8106B0BDE8F0874FF416510160002126
:100F20008180C18001810C21418100218181704734
:100F300010B502460020108A4FF2FF0318400B88BC
:100F40004C8823438C882343CC8823431843108246
:100F500010BD0021018041808180C180704721B196
:100F6000828942F40052828104E082894DF6FF7347
:100F70001A4082817047F0B5034600240026002500
:100F8000002040F66A17B94200D100BF1846C1F3ED
:100F9000421401F01F06012707FA06F5012C01D1C2
:100FA0000C3004E0022C01D1103000E014301AB1F2
:100FB00007682F43076002E00768AF430760F0BD92
:100FC0001AB1838A0B43838202E0838A8B43838234
:100FD0007047028A4FF6F0731A400282028A0A436F
:100FE0000282704782894FF2FF731A4082818289A0
:100FF0000A438281704721B1828942F002028281D4
:1010000004E082894FF6FD731A4082817047028A9C
:101010004FF6DF731A400282028A0A430282704747
:1010200021B1028A42F48042028204E0028A4BF635
:10103000FF731A4002827047C1F308028280704732
:1010400001468888C0F308007047818941F001019A
:1010500081817047028BD2B20283028B42EA012265
:1010600002837047028B02F47F420283028B0A43A1
:101070000283704721B1828A42F02002828204E01A
:10108000828A4FF6DF731A408282704721B1828ACA
:1010900042F01002828204E0828A4FF6EF731A4017
:1010A0008282704721B1828A42F00802828204E083
:1010B000828A4FF6F7731A408282704721B1828983
:1010C00042F40042828103E08289C2F30E028281EF
:1010D000704721B1828A42F40062828204E0828AEF
:1010E0004FF2FF731A4082827047828A4FF6FB7379
:1010F0001A408282828A0A438282704721B1828AA0
:1011000042F00202828204E0828A4FF6FD731A40A6
:101110008282704702460020B1F5007F00D100BFF7
:1011200013880B400BB1012000E00020704701F450
:101130000072B2F5007F00D100BFCA430280704741
:1011400070B50246002400230025002040F66A16F0
:10115000B14200D100BFC1F3421501F01F030126C7
:1011600006FA03F3012D02D19689334006E0022DE1
:1011700002D1168A334001E0968A33400C120126D0
:1011800006FA04F41688344013B10CB1012000E0D3
:10119000002070BD10B50022002340F66A14A14261
:1011A00000D100BF0A1201249440A3B2DC430480A2
:1011B00010BD0000003801400044004000480040DD
:1011C000004C00400050004010B50446FA488442EC
:1011D00008D101214015FFF7A5FD00216015FFF79B
:1011E000A1FD17E0F548844208D101210015FFF761
:1011F00099FD00212015FFF795FD0BE0F048844292
:1012000008D10121C803FFF78DFD00214FF40040F4
:10121000FFF788FD10BD30B502460020002350685E
:10122000E84C20400D790C6844EA052420435060C6
:101230009068E54C2040D1E902542C434D7944EAB2
:10124000450420439060D06A20F470000C7C641E3A
:10125000E4B2234340EA0350D06230BD0021016074
:10126000017141718160C16001210174704721B138
:10127000826842F00102826003E0826822F001028B
:101280008260704721B1826842F48072826003E01C
:10129000826822F480728260704710B50023CBB25E
:1012A0001AB144681C43446002E044689C434460B3
:1012B00010BD816841F0080181607047014600203F
:1012C0008A6802F008020AB1012000E0002070479D
:1012D000816841F0040181607047014600208A68FE
:1012E00002F004020AB1012000E00020704721B1A1
:1012F000826842F4A002826003E0826822F4A002C5
:1013000082607047014600208A6802F480020AB1B8
:10131000012000E00020704710B50A46002100239C
:10132000416821F46041531E41EA4331416010BDE0
:1013300021B1426842F40062426003E0426822F454
:10134000006242607047F0B504460D46002000215F
:10135000092D11DDE068A5F10A0606EB4607072610
:1013600006FA07F18843A5F10A0606EB460603FADA
:1013700006F10843E0600CE0206905EB450707260D
:1013800006FA07F1884305EB450603FA06F1084320
:101390002061072A0FDA606B561E06EB86071F26B0
:1013A00006FA07F18843561E06EB860605FA06F193
:1013B0000843606322E00D2A0FDA206BD61F06EB8C
:1013C00086071F2606FA07F18843D61F06EB860616
:1013D00005FA06F10843206310E0E06AA2F10D0669
:1013E00006EB86071F2606FA07F18843A2F10D06D1
:1013F00006EB860605FA06F10843E062F0BD21B16E
:10140000826842F48012826003E0826822F48012D3
:10141000826070470146C86C80B2704766484C30A5
:101420000068704721B1426842F48062426003E084
:10143000426822F480624260704721B1426842F4FF
:101440008052426003E0426822F48052426070475A
:101450000A460021816821F4E04111438160704710
:1014600021B1826842F40042826003E0826822F483
:1014700000428260704721B1826842F402128260A9
:1014800003E0826822F40212826070470146002065
:101490008A6802F400120AB1012000E000207047BF
:1014A000F0B504461546002000220026092911DD6A
:1014B000E068A1F10A0707EB470C072707FA0CF2CF
:1014C0009043A1F10A0707EB470703FA07F210431D
:1014D000E0600CE0206901EB410C072707FA0CF2F1
:1014E000904301EB410703FA07F210432061A06B20
:1014F000C0F30156EF1C06F1010CA7EB0C0707EB3C
:10150000870C1F2707FA0CF29043EF1C06F1010C21
:10151000A7EB0C0707EB870701FA07F21043A0635C
:10152000F0BD10B50A4600210023816B21F4401163
:10153000531E41EA0351816310BD08B50023009397
:101540000090009B0B440093009B1A6008BD08B5F7
:10155000024600200090009201F12800009B1844F0
:1015600000900098006880B208BD0A4600214168DA
:10157000164B1940114341607047416282627047C7
:101580000A460021416821F01F0111434160704764
:1015900040B109490831096841F40001064A08329E
:1015A000116007E004490831096821F40001024A8A
:1015B00008321160704700000024014000280140FB
:1015C000003C0140FFFEF0FFFDF7F1FFFFFD3FFF94
:1015D0000246002013680B400BB1012000E0002000
:1015E0007047CA430260704770B50246002000236E
:1015F00000240B125568CEB205EA060415681D409A
:1016000015B10CB1012000E0002070BD00220A12CB
:10161000D34303607047000010B5044622460821FA
:101620001148FFF75AF91148047010BD08B501219F
:101630000820FFF75DFB01210846FFF759FB012158
:101640000B48FFF76AF910208DF803000820ADF869
:10165000000003208DF8020069460348FFF78CF86C
:101660000020FFF7D9FF08BD000C01402800002032
:10167000000230004FF0E020006920F004004FF03D
:10168000E02108610920364908700846007800EB1F
:101690004001C1EBC0104FF6FF7101EAC0003149B3
:1016A00008807047002120F07F402D4A1278424385
:1016B0004FF0E0235A6100229A6101221A6100BFB3
:1016C0004FF0E022116901F001021AB101F48032F9
:1016D000002AF5D000224FF0E0231A619A6170478A
:1016E000002100B9704720F07F401E4A1288424313
:1016F0004FF0E0235A6100229A6101221A6100BF73
:101700004FF0E022116901F001021AB101F48032B8
:10171000002AF5D000224FF0E0231A619A6100BF41
:10172000E0E770B50446002600254FF4FA7094FBFC
:10173000F0F0C6B24FF4FA7094FBF0F100FB1140E8
:1017400085B205E04FF4FA70FFF7CAFF701EC6B20B
:10175000002EF7D115B12846FFF7C2FF70BD00007B
:101760002A0000202C00002010B586B0044601217C
:101770000420FFF7BDFA01218803FFF7B9FA18200A
:101780008DF817004FF40070ADF8140003208DF8A9
:10179000160005A96B48FEF7EFFF04208DF817002F
:1017A0000002ADF8140003208DF8160005A9654865
:1017B000FEF7E2FF01940020ADF810000C20ADF818
:1017C0000E000020ADF80C00ADF80A00ADF80800DE
:1017D00001A95D48FFF737FB01215B48FFF7BFFB1D
:1017E000012240F225515848FFF7C5FB25208DF80E
:1017F000000001208DF8030000208DF80100022078
:101800008DF802006846FEF7EEFE06B010BD10B57A
:1018100086B0044601210420FFF76AFA012148043A
:10182000FFF773FA18208DF817000420ADF81400A4
:1018300003208DF8160005A94248FEF79DFF0420FD
:101840008DF817000820ADF8140003208DF816005D
:1018500005A93C48FEF790FF01940020ADF8100068
:101860000C20ADF80E000020ADF80C00ADF80A0019
:10187000ADF8080001A93548FFF7E5FA0121334822
:10188000FFF76DFB012240F225513048FFF773FB53
:1018900026208DF8000001208DF8030000208DF82F
:1018A00001008DF802006846FEF79DFE06B010BDEF
:1018B0002DE9F04107460C46154600260DE014F8C8
:1018C000011B3846FFF7B8FB00BF40213846FFF741
:1018D00021FC0028F9D0701C86B2AE42EFDBBDE8D7
:1018E000F0810FB430B5CBB0054601AC50A80090E4
:1018F0004FF4947101A8009B4F9A02F015FA002052
:1019000000900BE014F8011B2846FFF795FB00BF81
:1019100040212846FFF7FEFB0028F9D02078002858
:10192000F0D14BB030BC5DF814FB10B540F225513E
:101930000548FFF705FC18B120210348FFF7F7FB26
:1019400010BD000000080140003801400044004084
:1019500000B587B001214FF40170FFF7C9F94FF4CA
:101960000040FFF729F900208DF81B003020ADF86A
:10197000180006A93C48FEF7FFFE3C48FFF724FC90
:1019800000208DF8090004904FF46020039000209F
:10199000019001208DF8140000208DF8080001A9A5
:1019A0003248FFF738FC01213048FFF760FC2F4830
:1019B000FFF77FFC00BF2D48FFF780FC0028FAD11D
:1019C0002A48FFF785FC00BF2848FFF786FC00285F
:1019D000FAD107B000BD10B5044607230122214605
:1019E0002248FFF7B0FC01212048FFF780FC00BF30
:1019F00002211E48FFF7ECFD0028F9D01B48FFF735
:101A000009FD10BD2DE9FF5F83460024A1460AE0D1
:101A10005846FFF7E0FF04440520FFF761FE09F197
:101A2000010000F0FF09B9F1050FF1DB0520B4FB5F
:101A3000F0F4204604F0A2FB019004F067FB4FF0A5
:101A400066320B4BCDE9020104F042F90746002251
:101A5000084B03F069FF054603F080FE82465046BE
:101A600004B0BDE8F09F00000008014000240140E0
:101A700066660A400000B0401CB501211020FFF747
:101A800037F901210420FFF733F910208DF8070002
:101A90004FF4B060ADF8040003208DF8060010206C
:101AA0008DF803000002ADF8000003208DF802005D
:101AB00001A90948FEF760FE69460848FEF75CFE8A
:101AC0004FF480510548FEF704FF4FF4B06102481F
:101AD000FEF7FFFE1CBD00000010014000080140A1
:101AE00008B501210920FFF703F90121F748FEF7A6
:101AF00014FF10208DF803003020ADF80000032003
:101B00008DF802006946F248FEF736FE08BD10B5B2
:101B1000044614BBEE48006820F47020EC490860CD
:101B20000846006840F440300860E9481430006816
:101B300040F01000E6491431086040F2EE20FFF753
:101B4000B1FDE3481030006840F01000E04910316A
:101B500008600F20FFF7A6FD21E0DD48006820F4B3
:101B60007000DB4908600846006840F440100860D7
:101B7000D7481430006840F02000D549143108607F
:101B800040F2EE20FFF78EFDD1481030006840F0A3
:101B90002000CF49103108600F20FFF783FD10BDF2
:101BA00070B50546002D3DD10024C948006820F4D9
:101BB0007020C74908600846006840F4802008602B
:101BC00004E00120FFF76EFD601CC4B2C04808307D
:101BD0000068C0F3001008B1F02CF2DBF02C01DB40
:101BE000012070BD0024BA48006820F47020B84974
:101BF00008600846006840F48020086004E0012086
:101C0000FFF750FD601CC4B2B14808300068C0F353
:101C1000001008B9F02CF2DBF02C01DB0120E0E72A
:101C20000020DEE700BFDCE770B506460D46002E5B
:101C30004AD1A748006820F47020A54908600846EA
:101C4000006840F440300860002432E005F00100F4
:101C5000B0B99F481430006840F010009C4914311E
:101C600008603C20FFF71EFD99481030006840F0E6
:101C700010009749103108600220FFF713FD15E0AE
:101C800093481430006840F0100091491431086006
:101C90000220FFF707FD8E481030006840F010006A
:101CA0008B49103108603C20FFF7FCFC6D10601C74
:101CB000C4B2082CCADB86481030006840F010001F
:101CC00083491031086049E08148006820F47000C1
:101CD0007F4908600846006840F44010086000240E
:101CE00032E005F00100B0B979481430006840F0E6
:101CF00020007749143108604120FFF7D3FC744875
:101D00001030006840F02000714910310860022056
:101D1000FFF7C8FC15E06E481430006840F0200062
:101D20006B49143108600220FFF7BCFC6848103092
:101D3000006840F020006649103108604120FFF73C
:101D4000B1FC6D10601CC4B2082CCADB60481030B6
:101D5000006840F020005E491031086070BD2DE938
:101D6000F04107460026002F3ED1002439E05848B4
:101D7000006820F47020564908600846006840F466
:101D80004030086052481430006840F0100050495C
:101D9000143108600220FFF785FC4D4810300068C0
:101DA00040F010004A49103108604948006820F4AA
:101DB0007020474908600846006840F480200860A9
:101DC0000C20FFF76FFC424808300068C0F3001594
:101DD000701040EAC510C6B23C20FFF763FC601CDF
:101DE000C4B2082CC3DB32E000242EE038481430A3
:101DF000006840F010003649143108600220FFF7F7
:101E000051FC33481030006840F010003049103168
:101E100008600C20FFF746FC2D48006820F4700095
:101E20002B4908600846006840F480000860284894
:101E300008300068C0F34015701040EAC510C6B203
:101E40003C20FFF72FFC601CC4B2082CCEDB3046D0
:101E5000BDE8F0812DE9F04F87B083464FF00009CF
:101E6000BBF1000F36D100252DE00020FFF74FFE1B
:101E70000020FFF795FECC210020FFF7D5FE44217E
:101E80000020FFF7D1FE0020FFF741FE0020FFF702
:101E900087FECC210020FFF7C7FEBE210020FFF700
:101EA000C3FE0020FFF75BFF06460020FFF757FF49
:101EB000044606EB042086B2C6F30B0048441FFA22
:101EC00080F9681CC5B2032DCFDB35E0000230007D
:101ED000000C014000252DE00120FFF718FE012035
:101EE000FFF75EFECC210120FFF79EFE442101207A
:101EF000FFF79AFE0120FFF70AFE0120FFF750FED0
:101F0000CC210120FFF790FEBE210120FFF78CFEBF
:101F10000120FFF724FF06460120FFF720FF0446BB
:101F200006EB042086B2C6F30B0048441FFA80F982
:101F3000681CC5B2032DCFDB04F0F000F0281ED1E1
:101F40006FEA0900401C1FFA80F9484603F071FE51
:101F500000221B4BCDE9000103F0BAFE0746002228
:101F6000184B03F0E1FC0022174BCDE9020103F00E
:101F7000AFFECDE9040103F0F1FB824612E04846D2
:101F800003F057FE00220E4BCDE9020103F0A0FE44
:101F900000220C4BCDE9040103F0C6FC074603F018
:101FA000DDFB8246504604F0B1F807463A460B4640
:101FB00006A10A48FFF795FC504607B0BDE8F08F30
:101FC0000000B03F000008400000F0BF54656D7095
:101FD000313A252E31660D0A00000000003801401C
:101FE00000B587B001214FF40370FEF781FE4FF476
:101FF0000040FEF7E1FD00208DF81B00C020ADF889
:10200000180006A98648FEF7B7FB10208DF81B00C4
:102010000320ADF818008DF81A0006A98148FEF7D4
:10202000ABFB8148FFF7D0F800208DF80900049041
:102030004FF4602003900020019001208DF81400DF
:1020400000208DF8080001A97748FFF7E4F8012186
:102050007548FFF70CF97448FFF72BF900BF724879
:10206000FFF72CF90028FAD16F48FFF731F900BFCC
:102070006D48FFF732F90028FAD107B000BD10B55E
:1020800004461CBB01216748FEF725FC4FF48C7009
:10209000FFF708FB0723012206216348FFF753F9E6
:1020A00001216148FFF723F900BF02215E48FFF7D5
:1020B0008FFA0028F9D02820FFF7F4FA01215948B7
:1020C000FEF707FC42F2D050FFF7ECFA012C23D1C7
:1020D00002215448FEF7FFFB4FF48C70FFF7E2FA41
:1020E0000723012219465048FFF72DF901214E48D8
:1020F000FFF7FDF800BF02214B48FFF769FA0028FF
:10210000F9D02820FFF7CEFA02214648FEF7E1FB7E
:1021100042F2D050FFF7C6FA4348FFF77BF910BDF3
:102120002DE9F04790B006464FF00009CA46002757
:1021300000241DE03046FFF7A2FF0AA921F8140091
:102140000AA830F8140031F81910884200DDA146C1
:102150000AA830F814000AA931F81A10884200DAE7
:10216000A2460AA830F81400384487B2601CC4B2F2
:10217000082CDFDB0AA830F81A000AA931F8191078
:102180000844381A87B2384603F053FD0022274B23
:10219000CDE9000103F0C8FB4FF06632244BCDE9D6
:1021A000020103F095FD00224FF08043CDE90401C8
:1021B00003F08EFD00221F4BCDE9060103F0B4FBB6
:1021C000CDE9080103F0CAFA8046404603F09EFFBD
:1021D000194A1A4BCDE9020103F07AFD184A194B4E
:1021E000CDE9040103F0A8FE0022174BCDE906015A
:1021F00003F06EFDCDE9080103F0EEFC85B20EB9E7
:1022000012480581012E01D1104845812A4610A1AE
:102210001248FFF766FB284610B0BDE8F0870000C3
:1022200000080140000C0140002401400000B040C3
:1022300066660A4000001840C3F5285C8FC2C53F9F
:102240009A9999999999B93F00408F40340000209C
:10225000447573743A25640D0A000000003801408B
:1022600010B54FF4A060FEF7B9F9FFF703FA4FF489
:10227000E130FFF779FA4FF4E130FFF7C8FAFFF7E2
:10228000D5F9FFF7F9FBFFF7ABFEFFF729FCFFF7E6
:102290005FFB69A16D48FFF724FB00206C490875BE
:1022A00008814881087348738873C8730874487438
:1022B000086048608874C87410BD4FF0000900269B
:1022C000FFF7CEFF01F0BBFB03E04FF4FA70FFF71E
:1022D00007FA00F0D3F80028F7D10120FFF79CF9A6
:1022E000FA20FFF7FDF90020FFF796F9A3E009F1C6
:1022F000010080B2814696282BDB0020FFF710FFFB
:102300000446534804810020FFF7A4FD05465048C9
:102310000560807C98B9C82C04DC4E49284603F03F
:10232000C0FF06D24C48406940F480604A49486189
:1023300005E04948006940F480604749086147A1C9
:102340004248FFF7CEFA00F08BF94FF0000901F098
:10235000F9FA3F48007D002845D10420FFF752FBE1
:10236000824603F0D3FE0746414A424B03F0AEFDDE
:102370001BD23748007B28B93748406940F08000BD
:10238000354948613248407B28B93348406940F4B8
:102390008070314948612E48807B18BB3648006800
:1023A00040F48050344908603AE02948007B28B95D
:1023B0002948006940F08000274908612448407B93
:1023C00028B92548006940F48070234908612048F5
:1023D000807B38B92848001F006840F480502649A7
:1023E000091F08601CE01A48007B28B91A48406998
:1023F00040F08000184948611548407B28B91648CC
:10240000406940F48070144948611148807B38B9B4
:102410001948001F006840F480501749091F0860E0
:102420000A2001F0EAFA064616B1304600F058F9E3
:102430000A20FFF755F95AE7204861726477617204
:102440006520696E6974204F4B0D0A000038014009
:10245000340000200000E841001001404F6E654E3E
:1024600065745F53656E64446174610D0A00000019
:102470009A9999999999E93F1408014030B58BB020
:1024800000200790089009900A900125D8A0DBA3AE
:10249000DCA2DEA10090E948FFF723FA07A800219B
:1024A00002910391CDE9041000912B02D0A2019179
:1024B000D2A1D4A000F0FDFB002842D1089A91B22D
:1024C000079801F083FAFA2001F097FA0446002CED
:1024D00033D0204600F0B8FB02282ED1204600F071
:1024E0004DFD062823D2DFE800F003090E13181D66
:1024F000D3A1D248FFF7F5F900251DE0D5A1CF48BB
:10250000FFF7EFF918E0DAA1CC48FFF7EAF913E09A
:10251000E0A1CA48FFF7E5F90EE0E6A1C748FFF7DA
:10252000E0F909E0ECA1C548FFF7DBF904E0F5A10B
:10253000C248FFF7D6F900BF00BF07A800F03CFB78
:1025400003E0F7A1BD48FFF7CCF928460BB030BD3A
:1025500070B588B004462021684601F023FEF9A139
:10256000204601F069FD2021684601F01BFEF64976
:10257000086803F0CBFD05462A460B46F3A16846E2
:1025800001F0ECFB6946204601F099FD20216846E8
:1025900001F008FEEC480289F0A1684601F0DEFB7C
:1025A0006946204601F08BFD2021684601F0FAFDC6
:1025B000ED48C068C0F3C01080F00102EBA168468E
:1025C00001F0CCFB6946204601F079FD20216846E8
:1025D00001F0E8FDE448C068C0F3002080F001028B
:1025E000E6A1684601F0BAFB6946204601F067FDA6
:1025F0002021684601F0D6FDE4480068C0F30030B1
:1026000080F00102E2A1684601F0A8FB694620467D
:1026100001F055FD2021684601F0C4FDD248C06894
:10262000C0F3802080F00102DDA1684601F096FB36
:102630006946204601F043FD2021684601F0B2FDC5
:10264000C148027DDAA1684601F088FB6946204650
:1026500001F035FD204601F013FDC0B208B070BD99
:1026600030B5A5B000202190229023902490002422
:102670000025D4A17148FFF734F9802101A801F0A9
:1026800091FD01A8FFF764FF0446002C26D021A885
:10269000052300222146009055A000F055FDC8B941
:1026A00008E001A8415D229A501C22902198815493
:1026B000681C05B2A542F4DB229A91B2219801F080
:1026C00085F9C8A15D48229AFFF70BF921A800F00F
:1026D00073FA03E0C7A15948FFF703F925B030BDED
:1026E0002DE9F04188B00646002004900590069040
:1026F0000790039002900190002400250027804657
:10270000304600F0A1FA0446042C69D00F2C68D1A1
:1027100001AB03AA02A9304600F0A2FD0546002D38
:1027200060D1BDF804000090BAA14448DDE902235D
:10273000FFF7D7F804AADDE9020100F0D7FD58B988
:10274000BDA13E48FFF7CDF8059A91B2049801F07B
:102750003DF904A800F030FA039800783028DFD162
:1027600003984078313806281ED2DFE800F0031EB7
:102770003F3E3D3C03988078312808D17A48406933
:1027800040F080007849486101206F490873039840
:102790008078302808D17448006940F08000724980
:1027A0000861012068490873A0E103988078312806
:1027B00008D16D48406940F480706B494861012040
:1027C0006149487303988078302808D166480069C9
:1027D00040F480706449086101205B49487385E1D9
:1027E00086E18EE183E172E16AE14EE130E10000D1
:1027F00035333734383535383500000053575553A5
:102800005400000032363430363400004F6E654ECE
:1028100065745F4465764C696E6B0D0A50524F4982
:10282000443A2025732C09415549463A2025732CFA
:102830000944455649443A25730D0A0000380140C1
:10284000546970733A09C1ACBDD3B3C9B9A60D0AB6
:10285000000000005741524E3A09C1ACBDD3CAA78F
:10286000B0DCA3BAD0ADD2E9B4EDCEF30D0A0000CE
:102870005741524E3A09C1ACBDD3CAA7B0DCA3BA86
:10288000B7C7B7A8B5C4636C69656E7469640D0A8F
:10289000000000005741524E3A09C1ACBDD3CAA74F
:1028A000B0DCA3BAB7FECEF1C6F7CAA7B0DC0D0AFA
:1028B000000000005741524E3A09C1ACBDD3CAA72F
:1028C000B0DCA3BAD3C3BBA7C3FBBBF2C3DCC2EB70
:1028D000B4EDCEF30D0A00005741524E3A09C1AC97
:1028E000BDD3CAA7B0DCA3BAB7C7B7A8C1B4BDD31C
:1028F00028B1C8C8E7746F6B656EB7C7B7A8290D54
:102900000A0000004552523A09C1ACBDD3CAA7B073
:10291000DCA3BACEB4D6AAB4EDCEF30D0A00000003
:102920005741524E3A094D5154545F5061636B65A3
:1029300074436F6E6E656374204661696C65640DE7
:102940000A0000002C3B000034000020315F746559
:102950006D702C25302E31663B000000315F6475B0
:1029600073742C25643B000000100140315F6C69DA
:10297000676874312C303125643B0000315F6C692D
:10298000676874322C303225643B00000C0801402B
:10299000315F6C69676874332C303325643B000009
:1029A000315F77617465722C303425643B00000020
:1029B000646565705F6C696768742C303625643BAC
:1029C00000000000546970733A094F6E654E6574DB
:1029D0005F53656E64446174612D4D5154540D0A0A
:1029E0000000000053656E64202564204279746500
:1029F000730D0A005741524E3A094544505F4E65E7
:102A000077427566666572204661696C65640D0A79
:102A100000000000636D6469643A2025732C207205
:102A200065713A2025732C207265715F6C656E3A72
:102A30002025640D0A000000546970733A0953653B
:102A40006E6420436D64526573700D0A00000000CF
:102A500003988078312808D13548006840F48050C8
:102A600033490860012033498873039880783028FF
:102A70000AD12F48001F006840F480502C49091FDC
:102A8000086001202B49887330E003988078312852
:102A900008D12948406940F48060274948610120F5
:102AA0002449887403988078302808D12248006926
:102AB00040F480602049086101201E49887415E0B7
:102AC00000201C4908734873887388740EE00398CB
:102AD0008078312802D10120164908750398807842
:102AE000302802D100201349087500BF00BF0BE059
:102AF000304600F064FE18B910A11848FEF7F1FE48
:102B000002E04FF0FF3500BF00BF00F01BFF681C64
:102B100010B908B0BDE8F0810F2C01D0032C05D10D
:102B2000029801F0DAF8039801F0D7F800BFF0E757
:102B300014080140340000200010014054697073F3
:102B40003A094D515454205075626C697368205392
:102B5000656E64204F4B0D0A0000000000380140F4
:102B600070B504460E460025206898B901202073F0
:102B7000304601F083F820602068E0B100206060FA
:102B8000A66003E00020216848556D1CA068A8429B
:102B9000F8D810E00220207303E000202168485597
:102BA0006D1CA068A842F8D800206060A068B04200
:102BB00001D20020206070BD10B50446207B0128A2
:102BC00002D1206801F089F8002020606060A060D8
:102BD000207310BD0246002301230DE002F07F00A8
:102BE0000870D2092AB1087840F080000870491CAA
:102BF00001E0184670475B1C042BEFDD4FF0FF30FF
:102C0000F8E7F0B504460D46264601230020106083
:102C1000002114E0775C07F07F07106807FB0300D2
:102C20001060705C00F0800008B9481CF0BDDB014A
:102C3000B3F5001F02D36FF00100F7E7491CA9426A
:102C4000E8DB4FF0FF30F1E7F8B50446FF272078C6
:102C50000511012D01DB0E2D01DD3846F8BD032DD8
:102C600024D1002000906A460421601CFFF7C9FFB0
:102C70002044461C0098022803D3207800F001006D
:102C800008B1FF20EAE77078317840EA0120801C23
:102C90000099884201D9FF20E0E7F8A1B01C01F0BB
:102CA000B9F908B10F2700E0032700E02F463846A6
:102CB000D4E72DE9FF4F83B082468B469146159CA1
:102CC0000025002002900F270190484601F0D8F916
:102CD0000FFA80F8B9F1000F03D1012007B0BDE869
:102CE000F08F08F10200384487B2109808B145F01F
:102CF0000205129878B145F00405129801F0C0F968
:102D0000C0B20290139801F0BBF901460298001D71
:102D10000844384487B2119820B1012804D0022811
:102D200008D104E000BF07E045F00C0504E045F0E1
:102D3000140501E00220D1E700BF149808B145F066
:102D40002405BAF1000F02D0BBF1000F01D103201E
:102D5000C4E745F0C005504601F092F906465846D2
:102D600001F08EF93044001D384487B239462046C0
:102D7000FFF7F6FE206808B90420AFE7394620685F
:102D800001F0EEF910216268501C606020688154E7
:102D9000D4E90023D118781FFFF71CFF00B201907F
:102DA0000198002804DA2046FFF706FF052095E782
:102DB000616801980844606000216268501C60608E
:102DC0002068815404216268501C6060206881542E
:102DD0004D216268501C60602068815451216268F6
:102DE000501C60602068815454216268501C6060EF
:102DF000206881546268501C6060206881540421FE
:102E00006268501C6060206881546168481C606082
:102E1000206845540698010A6268501C606020686A
:102E200081540698C1B26268501C60602068815469
:102E3000C8F307216268501C606020688154626892
:102E4000501C6060206800F80280D4E900128818E5
:102E50004246494601F0CCF860684044606005F0A5
:102E60000400B8B30026139808B986A013901298EE
:102E700001F006F986B2310A6268501C6060206871
:102E800081546268501C606020688654D4E9001246
:102E900088183246129901F0ABF8606830446060DF
:102EA000139801F0EDF886B2310A6268501C606038
:102EB000206881546268501C606020688654D4E9A0
:102EC000001288183246139901F092F86068304475
:102ED000606000BF05F08000C8B1504601F0D0F836
:102EE00086B2310A6268501C606020688154626852
:102EF000501C606020688654D4E90012881832465D
:102F0000514601F075F860683044606000BF05F01C
:102F10004000C8B1584601F0B3F886B2310A626881
:102F2000501C6060206881546268501C606020689A
:102F30008654D4E9001288183246594601F058F8F0
:102F400060683044606000BF0020C7E610B50446EA
:102F500002212046FFF704FE206808B9012010BDB9
:102F6000E0216268501C6060206881540021626822
:102F7000501C6060206881540020F0E701464878CA
:102F8000022801D001207047887810B18878012884
:102F900001D1C878F7E7FF20F5E72DE9FF4F83B0AF
:102FA000834690469946139C0026002500200290F7
:102FB00001900027BBF1000F03D1012007B0BDE84D
:102FC000F08F00250AE00498405D232803D0049880
:102FD000405D2B2801D10220F0E76D1C0498405D74
:102FE0000028F0D147F03007119808B147F00107E9
:102FF00005EB0900861C109820B1012804D0022896
:103000000AD105E000BF09E047F00207B61C05E061
:1030100047F00407B61C01E00320CFE700BF98F893
:103020000000022822D14FF0000A00BF50460AF1EA
:10303000010A18F800007D28F8D1AAF1030A0AF164
:10304000070002900298A9EB000AF01CA0EB0A010D
:103050002046FFF785FD206808B90420AEE7F21C82
:10306000A2EB0A01206801F07BF811E0F11C204678
:10307000FFF776FD206838B904209FE72463726566
:103080007100000000000000F11C206801F068F8E9
:103090006168481C606020684754D4E900028118C8
:1030A0003046FFF797FD01900198002804DA20468A
:1030B000FFF782FD052081E76168019808446060A0
:1030C000C5F307216268501C606020688154626803
:1030D000501C606020688554D4E9001288182A4684
:1030E000049900F085FF606828446060109860B122
:1030F0004FEA1B216268501C60602068815462683E
:10310000501C6060206800F802B0B8F1000F19D0C0
:1031100098F8000002280BD1D4E900128818414623
:10312000029A00F0D8FF616802980844606009E0E4
:10313000D4E9001288184A46414600F0CCFF606886
:1031400048446060002039E72DE9FF4107460D46FD
:1031500090461E460A9C01200021CDE90001EB1C8F
:103160000A46FAA1CDE902040A20FFF716FF88B942
:103170006168481C606020684654C5F30721626896
:10318000501C6060206881546268501C6060206838
:10319000855403E0012004B0BDE8F0810020FAE787
:1031A0002DE9F04F85B080460D46914601200490F0
:1031B0000027002600244FF0000A404600F060FF80
:1031C00000F10D0B584600F059FD07461FB9049851
:1031D00005B0BDE8F08F4246DDA1384600F0BEFDE7
:1031E000384600F04DFFC6B2F01D00EB050AAAEB11
:1031F000050000F043FD044624B9384600F06DFD9B
:103200000498E5E70220207000206070A670324626
:103210003946E01C00F05FFF290EF01C2154C5F375
:103220000741301D2154C5F30721701D2154B01DE5
:10323000255401200021CDE9000153462246C3A1B7
:10324000CDE902090A20FFF7A8FE08B90020049082
:10325000384600F042FD204600F03FFD0498B7E7F5
:103260002DE9F84380460C4615461E462F2108F1ED
:10327000060000F0B3FE07460020009017B90120B9
:10328000BDE8F8837F1C6A46042108F10100FFF7BE
:10329000B8FC252000F0F2FC2060206808B902206C
:1032A000EEE72521206800F05BFF242239462068E4
:1032B00000F011FF243700982C3830803188481CEA
:1032C00000F0DCFC2860286820B9206800F005FDCB
:1032D0000320D5E73288511C286800F041FF32886E
:1032E0003946286800F0F7FE0020C9E72DE9FF5FA6
:1032F00007460D469046384600F0C2FE86B2284684
:1033000000F0BEFE1FFA80FA4FF00009B01D00F079
:10331000B5FC04461CB9012004B0BDE8F09FB11D06
:10332000204600F01DFF8EA0016821608088A080EB
:1033300032463946204600F05BFE284600F0A0FEEB
:1033400083460120002100915B462A46CDE9020810
:10335000019121460A20FFF720FE10B94FF0000925
:1033600001E04FF00109204600F0B7FC4846D3E7E2
:103370002DE9FF5F8046174699460E9C0026B2460F
:10338000B3460025B8F1000F03D1012004B0BDE819
:10339000F09F0BE057F8250008B90220F6E757F830
:1033A000250000F06DFE0644681CC5B24D45F1DBFA
:1033B00009EB4900801C00EB060A0AF105012046D2
:1033C000FFF7CEFB206808B90320DFE7822162689F
:1033D000501C606020688154D4E900028118504676
:1033E000FFF7F8FB0FFA80FBBBF1000F04DA204671
:1033F000FFF7E2FB0420C9E76068584460604FEAC9
:1034000018216268501C6060206881546268501CFA
:103410006060206800F80280002524E057F825004D
:1034200000F02EFE0646C6F307216268501C60605D
:10343000206881546268501C606020688654D4E91A
:103440000023D01857F82510324600F0D1FD6068EF
:10345000304460600198C1B26268501C60602068AE
:103460008154681CC5B24D45D8DB00208EE701466B
:10347000FF208A78A2B9CA78142A11D10A7932B108
:10348000012A05D0022A04D0802A06D103E000BF19
:1034900000BF002003E0012001E0022000BF00BFC8
:1034A00070472DE9F05F80460F4691461C46002686
:1034B000B246B3460025B8F1000F02D10120BDE8A5
:1034C000F09F0BE057F8250008B90220F7E757F8FE
:1034D000250000F0D5FD0644681CC5B24D45F1DB62
:1034E000022000EB490000EB060A0AF10501204624
:1034F000FFF736FB206808B90320E0E7A2216268E5
:10350000501C606020688154D4E900028118504644
:10351000FFF760FB0FFA80FBBBF1000F04DA2046D7
:10352000FFF74AFB0420CAE76068584460604FEA2E
:1035300018216268501C6060206881546268501CC9
:103540006060206800F8028000252BE02464700091
:103550007B2264735F6964223A222573227D000016
:1035600024637273702F000057F8250000F088FD67
:103570000646C6F307216268501C606020688154CB
:103580006268501C606020688654D4E90023D0181B
:1035900057F82510324600F02BFD6068304460601B
:1035A000681CC5B24D45DFDB002088E701460120DD
:1035B0008A781AB9CA781E2A00D1002070472DE9EE
:1035C000FC5F81460D4614461E46DDE90C8B99F8DA
:1035D000000000F00F0A002001900AF0080000909F
:1035E000CAF341008BF8000001AA042109F101008F
:1035F000FFF707FB4844471C0198022802D30AF052
:10360000010010B1FF20BDE8FC9F7878397840EACE
:10361000012020802088801C0199884201D9FF2048
:10362000F1E7AFF2A851B81C00F0F4FC08B10F208C
:10363000E9E79BF8000020B101283DD0022877D1AE
:103640003BE0009808B1FF20DDE72188481C00F02E
:1036500015FB2860286808B9FF20D4E72288511C90
:10366000286800F07DFD2288B91C286800F033FD31
:103670000198801E2188401AA8F80000B8F80010B0
:10368000481C00F0FBFA3060306820B9286800F070
:1036900024FBFF20B7E7B8F80020511C306800F089
:1036A0005FFDB8F80020B4F800C0BB1C0CEB0301B0
:1036B000306800F010FD4FE000BF2088801C0199A9
:1036C000884201D9FF209EE72088C01C395C2088F1
:1036D000801C385C41EA00210E9801800E9808B9E0
:1036E000FF2090E72188481C00F0C8FA286028686D
:1036F00008B9FF2087E72288511C286800F030FDB8
:103700002288B91C286800F0E6FC0198001F218877
:10371000401AA8F80000B8F80010481C00F0AEFAF3
:103720003060306828B9286800F0D7FAFF206AE7CF
:1037300010E0B8F80020511C306800F011FDB8F816
:103740000020B4F800C03B1D0CEB0301306800F012
:10375000C2FC01E0FF2056E700BF2B21284600F005
:103760003DFC20B92321284600F038FC08B1FF2099
:1037700049E7002047E770B505460C46042120467E
:10378000FFF7EEF9206808B9012070BD402162689A
:10379000501C60602068815402216268501C606087
:1037A0002068815429126268501C6060206881542E
:1037B0006268501C6060206885540020E5E701467F
:1037C0004878022801D001207047887820B9C8784D
:1037D0000A2801D10020F7E70120F5E770B505467A
:1037E0000C4604212046FFF7BBF9206808B90120E8
:1037F00070BD50216268501C6060206881540221B5
:103800006268501C60602068815429126268501CF4
:103810006060206881546268501C60602068855434
:103820000020E5E701464878022801D001207047D2
:10383000887820B9C8780A2801D10020F7E701204C
:10384000F5E770B505460C4604212046FFF788F9D8
:10385000206808B9012070BD62216268501C606058
:103860002068815402216268501C60602068815485
:1038700029126268501C6060206881546268501C84
:103880006060206885540020E5E7024650780228F1
:1038900001D0012070479078B0EB112F05D1D0787E
:1038A000CBB2984201D10020F4E70120F2E770B5D5
:1038B00005460C4604212046FFF752F9206808B956
:1038C000012070BD70216268501C606020688154C6
:1038D00002216268501C606020688154291262686D
:1038E000501C6060206881546268501C60602068D1
:1038F00085540020E5E701464878022801D00120E0
:103900007047887820B9C8780A2801D10020F7E7E5
:103910000120F5E710B5044602212046FFF720F903
:10392000206808B9012010BDC0216268501C606089
:103930002068815400216268501C606020688154B6
:103940000020F0E710B58021874800F009FC002036
:103950008649088010BD8548008808B90120704755
:103960008248008882490988884203D100207F4923
:103970000880F4E77D4800887D4908800120EEE753
:103980002DE9F04104460D46C826204600F078FB9C
:1039900087B23A4621467748FDF78AFF0FE0FFF7E6
:1039A000DAFF48B92946704800F034FB20B1FFF730
:1039B000C9FF0020BDE8F0810A20FDF791FE301E0E
:1039C000A6F10101CEB2EAD10120F3E730B589B00A
:1039D00004460D46FFF7B6FF2A4667A101A800F08E
:1039E000BDF969A101A8FFF7CBFF20B92A462146FE
:1039F0006048FDF75DFF09B030BD70B50546002495
:103A000000BFFFF7A8FF80B960A1574800F002FB94
:103A1000044654B13A21204600F0E0FA044614B1BD
:103A2000641C204670BD0020FCE70520FDF758FE11
:103A3000281EA5F101018DB2E3D100BFF2E708B560
:103A400001210420FDF754F910208DF803008002B5
:103A5000ADF8000003208DF8020069464D48FCF7E0
:103A60008BFE00224FF480414A48FCF736FFFA20D3
:103A7000FDF736FE012291034648FCF72EFF4FF476
:103A8000FA70FDF72DFEFFF75DFF43A14448FDF7F7
:103A900028FF03E04FF4FA70FDF722FE41A142A097
:103AA000FFF76EFF0028F5D141A13D48FDF719FF52
:103AB00003E04FF4FA70FDF713FE3AA13FA0FFF7C1
:103AC0005FFF0028F5D141A13548FDF70AFF03E06B
:103AD0004FF4FA70FDF704FE32A140A0FFF750FF4B
:103AE0000028F5D141A12E48FDF7FBFE03E04FF47D
:103AF000FA70FDF7F5FD40A141A0FFF741FF002856
:103B0000F5D147A12648FDF7ECFE03E04FF4FA702B
:103B1000FDF7E6FD46A148A0FFF732FF0028F5D1EA
:103B200050A11F48FDF7DDFE08BD10B540F225513C
:103B30001048FDF705FBB0B10C480088802802D37F
:103B400000200A4908800B48001D0088C1B20748C0
:103B500002880088401C054B1880034881542021AE
:103B60000448FDF7E4FA10BD4C0000202E000020B0
:103B7000300000200044004041542B43495053453D
:103B80004E443D25640D0A003E0000004950442C7F
:103B90000000000000100140312E2041540D0A00A9
:103BA000003801404F4B000041540D0A0000000056
:103BB000322E2043574D4F44450D0A0041542B43AC
:103BC000574D4F44453D310D0A000000332E204132
:103BD000542B4357444843500D0A000041542B4393
:103BE00057444843503D312C310D0A00342E2043B8
:103BF000574A41500D0A0000474F542049500000D9
:103C000041542B43574A41503D22353137222C2213
:103C1000696F74313730323531372E220D0A00008A
:103C2000352E2043495053544152540D0A00000090
:103C3000434F4E4E4543540041542B434950535437
:103C40004152543D22544350222C223138332E32DB
:103C500033302E34302E3339222C363030320D0AA8
:103C600000000000362E20455350383236362049A9
:103C70006E6974204F4B0D0A0000000070B50646B7
:103C800000F0BAFA056806F10B0020F00704B44210
:103C90009CBF002070BD2B466A68BAB11068A04274
:103CA00010D304F1080188423CBF5068586007D324
:103CB0005168101941601168091B01605860146057
:103CC000101D70BD13465268002AE7D121462846D0
:103CD00000F09AFA0028DED170BD70B50446051FC9
:103CE00000F08AFA0068002C14BF446870BD002CF4
:103CF00018BFAC423CBF20466468F8D301680A187C
:103D0000AA4218BF456003D12A68054611440160E4
:103D100028684119A1421CBF6C6070BD6168696070
:103D200021680844286070BD7CB51D4616460C000D
:103D3000009001D02044401E074B7B442A46694630
:103D40000190304600F063FD05461CB10020694635
:103D500000F070FD28467CBD010B00000FB41CB5BF
:103D6000084B06AA7B4469460090059800F04FFD79
:103D700004460020694600F05DFD20461CBC5DF84D
:103D800014FB0000CD0A000070B50C460546012A60
:103D900005D02878800600D5EA69002302E00123D7
:103DA00005E05B1C934202D2E05C0028F9D1A869CF
:103DB000E618C01AA861286A18442862284600F04C
:103DC0006DFA04E0D5E9012114F8010B9047B442E3
:103DD000F8D3284600F078FA70BD00002DE9F041D4
:103DE0000646002410687529314616A510D000F04B
:103DF0007CFA002802DA404213A507E031688A07FE
:103E000001D512A502E0490704D511A5012401E05E
:103E100000F074FA00210A2206F1240709E0B0FB41
:103E2000F2FCB0FBF2F302FB1C0030307854184671
:103E3000491C0028F3D123462A463046BDE8F0410C
:103E400000F065BA000000002D0000002B0000000B
:103E5000200000002DE9F05F894604464FF0000A7B
:103E6000DFF874B1FB44C0F820A02046E168884721
:103E7000002874D0252806D0D4E901219047206A73
:103E8000401C2062F1E700265F462046E168884733
:103E90002028054607DB312D05D2781910F8200CB3
:103EA00008B10643F1E7B00701D526F00406C4F8CF
:103EB0001CA00027C4F818A02A2D09D0284601F01C
:103EC0001AFC38B304EB8708303DC8F8185019E0E5
:103ED00059F8041B204604EB87029161E16888478A
:103EE000012F054618D1E069002820DA26F02006C7
:103EF0001DE0D8F8180000EB800005EB40003038DA
:103F0000C8F818002046E1688847054601F0F3FB31
:103F10000028EED1012F0AD02E2D08D12046E168CD
:103F200088477F1C0546022F46F02006C4DBA069A7
:103F3000002803DA404246F00106A061F00701D0F4
:103F400026F010066C2D0BD0682D09D04C2D39D0E1
:103F50006A2D35D0742D35D07A2D33D016E038E067
:103F6000E1682F4620468847B842054609D16C2FA4
:103F700026D04FF48060E168064320468847054616
:103F800004E06C2F1AD04FF4807006430DB3A5F1F6
:103F90004100192802D8203546F400664A462946D1
:103FA000204626604E46FCF7FDF880B101280BD074
:103FB000F61D26F0070000F1080956E74020E4E767
:103FC0008020D8E70020D6E706F104094DE728460F
:103FD00052E7206ABDE8F09FA0240000401ECAB24C
:103FE00010F8011F8A4202D00029F9D10020704741
:103FF00010B5431E13F8014F002CFBD105E011F85A
:10400000014B002C03F8014B03D0521EF7D20021C4
:10401000197010BD30B505460B462A4613F8014B02
:1040200012F8010B08B1A042F8D01CB1002802D050
:104030006D1CF1E7284630BD40EA0103024630B569
:104040009B0710D14FF0013400E008C208C91D1BC6
:104050009D4315EAC41FF8D013F0FF0102F8011BBD
:104060000DD01B0AF8E711F8013B002B02F8013BC9
:1040700005D011F8013B002B02F8013BF3D130BD14
:1040800010B5431C02E010F8011B71B18107FAD191
:104090004FF0013202C88C1A8C4314EAC211F9D0D5
:1040A000C01A0A0603D0C01E10BDC01A10BD0A04F3
:1040B00001D0801E10BD0902FCD0401E10BD421E62
:1040C00012F8013F002BFBD111F8013B002B02F845
:1040D000013BF9D17047032A40F2308010F0030C05
:1040E00000F0158011F8013BBCF1020F624498BF4B
:1040F00011F801CB00F8013B38BF11F8013BA2F1E8
:10410000040298BF00F801CB38BF00F8013B11F062
:10411000030300F0D184083AC0F0088051F8043B52
:10412000083A51F804CBA0E80810F5E7121D5CBF6F
:1041300051F8043B40F8043BAFF30080D20724BFA2
:1041400011F8013B11F801CB48BF11F8012B24BF36
:1041500000F8013B00F801CB48BF00F8012B704785
:104160004FF000020429C0F0128010F0030C00F0A0
:104170001B80CCF1040CBCF1020F18BF00F8012B1E
:10418000A8BF20F8022BA1EB0C0100F00DB85FEAEC
:10419000C17C24BF00F8012B00F8012B48BF00F8B8
:1041A000012B70474FF0000200B513469446964627
:1041B000203922BFA0E80C50A0E80C50B1F120013A
:1041C000BFF4F7AF090728BFA0E80C5048BF0CC0E8
:1041D0005DF804EB890028BF40F8042B08BF704746
:1041E00048BF20F8022B11F0804F18BF00F8012BB8
:1041F000704770477047704700487047D4000020F0
:10420000704770477047704738B504460A4600202B
:104210006946AFF30080002808BF38BD0246009908
:10422000204600F083FC012038BD012000F0C2BD13
:10423000F8B5AFF30080054600200C46102000BF03
:104240000646A819A0420DD9324669460020AFF3B0
:104250000080070008BF00F0ADFD0098A04218BF25
:104260000546C419FFF7C8FF05600746F01D20F09A
:1042700007004619284600F00AF8B44208BFF8BD06
:10428000A21B31463868BDE8F84000F04FBC002161
:104290000160C0E9011070471020704770B50446F6
:1042A00085690068C10601D5302600E02026C007D8
:1042B00007D070BDD4E9012130469047206A401CE8
:1042C00020626D1EF6D570BD70B504468569007814
:1042D000C00707D170BDD4E9012120209047206A92
:1042E000401C20626D1EF6D570BD09684A0501D5D7
:1042F00040B27047C905FCD500B2704709684A054D
:1043000001D5C0B27047C905FCD580B270472DE910
:10431000F0470D4699469246044600F1240801688C
:10432000880604D5E06921F01001216000E0012039
:10433000A84201DD471B00E00027A1697A1902EBC2
:104340000900081AA0612078C00602D42046FFF7B1
:10435000A5FF002608E0D4E901211AF806009047DD
:10436000206A401C761C20624E45F4DB2078C00693
:104370000AD52046FFF792FF06E0D4E9012130205C
:104380009047206A401C2062381EA7F10107F4DC28
:1043900007E0D4E9012118F805009047206A401C85
:1043A0002062281EA5F10105F3DC2046FFF78CFFF3
:1043B0002078000602D50220BDE8F0870120FBE747
:1043C00011680268006A530501D508700AE0D30538
:1043D00001D5088006E0130603D5C217C1E9000223
:1043E00000E008600120704770472DE9FF4F0C4640
:1043F0001E464FF0FF378BB0D2E90001DDF8608038
:104400000A908A46C1F30A5505B93D46002108467F
:104410004FF00000BAF1000F00F4400005DA00EBA5
:1044200080004FF4400101EA50004FEA9059B9F181
:10443000010F00DDB9460A9850EA4A000ED044F652
:104440001050A5F2FF3545432F14B8F1000F1ED0D0
:104450007542291E1EDDC9F100021CE0B8F1010FF2
:104460004FF0000001D0302103E0F24305E0215479
:10447000401CB042FBDB30460022002121540B9946
:10448000C1F80880C1E900200FB0BDE8F08FBD1B66
:104490006D1CDEE74A4600DA694206A800F0FCFB24
:1044A00006AB93E8070003AB83E8070050460A9980
:1044B00000F052FD8DE80700A0F500501F38009075
:1044C0000398002D09DD42F21F014A46084403A962
:1044D0000390684600F0B1FF08E0A0F500504A469E
:1044E0001F3803A90390684600F0BBFF8DE8070062
:1044F0000004000C03D04FF0FF30410800E01046EC
:10450000B8F1000F03D00022009215461EE0751E80
:1045100005D400F025FB303262556D1EF9D5B34647
:104520000122084302D000227F1C04E020783028BA
:1045300001D100227F1E002A099786D01DE0112D8F
:1045400007DA00F00DFB303262556D1C50EA0102B3
:10455000F5D1084302D00098C8B10EE00021681ED2
:1045600005E0235C625C63542254401E491C814276
:10457000F7DBAB46A81B401E0990002004F80B0097
:104580000B98099AC0F80880C0E9002B7CE7112637
:104590004FF0000859E72DE9F04F88460446D21D38
:1045A00022F0070191B0D1E90001CDE90A0101F043
:1045B0008EF802460B98C00F01D02D2007E020682E
:1045C000810701D52B2002E0202101EAC000032A47
:1045D000099001D0072A05DB03464146204600F03A
:1045E00005FB0BE12078800601D5E06900E006209C
:1045F000B8F1650F814606D0B8F1660F18D0B8F152
:10460000670F70D131E00020B9F1110F009001DB8C
:10461000112301E009F101030AAA01A90CA8FFF77F
:10462000E4FEDDE90C70002609F10105834647E050
:1046300001204B4600904FF000470AAA01A90CA8A0
:10464000FFF7D3FEDDE90DB00C995D46002610B9E9
:1046500009F101000D18B9EB050003D4C0F1FF36D4
:1046600009F10105A5EB09002BE0B9F1010F01DA11
:104670004FF001090020B9F1110F0090484601DD0B
:10468000112300E003460AAA01A90CA8FFF7ADFE1A
:10469000DDE90C704D4600268346207800070AD4D9
:1046A000AB4500DA5D4601A8012D04DD411911F882
:1046B000011C302907D04F4502DA17F1040F04DA44
:1046C000012082460FE06D1EEEE7002F02DCED1B9D
:1046D0003E4403E0781CA84200DD7D1CB81B00F1BD
:1046E000010A4FF000472078000703D4AA4501DBF8
:1046F0004FF0FF3A0021B7F1004F0DF143088DF85C
:10470000431024D002202B23002F01DA7F422D23D7
:104710000A21021EA0F1010000DC5FB197FBF1FC51
:1047200097FBF1F201FB1C7C17460CF1300C08F8EA
:1047300001CDEEE7A8F1010003702188090501D53C
:10474000452100E06521A0F1010800F8011C09984D
:104750000FA9A1EB0807FF1D00B10120411901EBD2
:10476000EA70A1693844081A401EA0612078C0068A
:1047700002D42046FFF792FD099828B1D4E901211F
:104780009047206A401C20622078C00622D520462F
:10479000FFF784FD1EE0002E04DBB34502DD01A817
:1047A000805D00E03020D4E901219047206A401C60
:1047B0002062761CAAF101005FEA000A0AD100F02B
:1047C000B1F9C0680168405CD4E901219047206AD2
:1047D000401C2062281EA5F10105DCDC07E0D4E9BD
:1047E000012118F8010B9047206A401C2062381EF6
:1047F000A7F10107F3DC2046FFF766FD032011B0A7
:1048000043E6000001694A1C02610878704700B560
:104810008FB0CDE901310021059105497944CDE9F9
:10482000031011466846FFF715FB0FB000BD0000EE
:10483000E5FFFFFF0A6802F8010B0A607047D1E943
:1048400000239A4202D2531C0B601070704710B5BF
:10485000436913B1AFF3008001E0FFF795FA01203F
:1048600010BD127800F124010A7000224A70012262
:10487000EDE711684FF0FF32E9E700002DE9FF5F37
:1048800015468A460446DFF8AC80F8440027D8E98C
:1048900000103E46CDE9001010E03AF816106A46C6
:1048A00002A800F067FA411C07D02178890603D5D9
:1048B000E269391891420DD80744761C20788006A9
:1048C00002D5E069B84205DDAE42E6DB3AF81600F3
:1048D0000028E2D1A069C01BA0612046FFF7DEFCE2
:1048E000D8E90010CDE90010002017E03AF81810C0
:1048F0006A4602A800F03EFAB0F1FF3F81460BD0B5
:1049000000250DF1080B05E0D4E901211BF8050095
:1049100090476D1C4D45F7D308F10100B042804629
:10492000E4DB206A384420622046FFF7CDFCBDE876
:10493000FF9F00008E1A00002DE9F0418046D21D35
:1049400022F007020025D2E90002F52915A614D0AD
:10495000011E72F1000106DA0023D0EB030063EBC5
:10496000020211A608E0D8F800108B0701D50FA6A7
:1049700002E0490701D50EA601251146002408F1E1
:10498000240704E000F0ECF830323A55641C50EA99
:104990000102F7D12B46324621464046BDE8F041A0
:1049A000FFF7B5BC000000002D0000002B00000048
:1049B0002000000030B4002100F1240408E002F0DF
:1049C0000705D208303542EA4372DB086554491CBA
:1049D00052EA0305F3D10468002310A2250707D586
:1049E000A40600D421B1C46901230DA2641EC461D0
:1049F00030BCFFF78CBC10B5044621461068FFF7A9
:104A00007DFC02462046BDE810400023D2E7D21DBF
:104A100022F00701D1E90023CCE7000000000000EC
:104A200030000000F0B40D460188090502D5214C84
:104A30007C4402E01F4C7C440E34002100F124062B
:104A400008E002F00F071209E75D42EA03721B0952
:104A50007754491C52EA0307F3D102780023120766
:104A600004D5702D06D009B1022311342246F0BCC2
:104A7000FFF74DBC01231034F8E770B504460D462E
:104A800021461068FFF73AFC024629462046BDE859
:104A900070400023C6E7D21D22F00703D3E90023AC
:104AA000C0E70368126843F0200303600823C36172
:104AB0000023B7E7F018000010B5203AC0F00B80D3
:104AC000B1E81850203AA0E81850B1E81850A0E812
:104AD0001850BFF4F5AF5FEA027C24BFB1E818506C
:104AE000A0E8185044BF18C918C0BDE810405FEADC
:104AF000827C24BF51F8043B40F8043B08BF704758
:104B0000D20728BF31F8023B48BF11F8012B28BF5C
:104B100020F8023B48BF00F8012B7047004870475F
:104B2000CC00002000487047EC000020034640689D
:104B30008C46002818BF88423CBF03464068F8D323
:104B400018681844884207D00CF1030020F00700D1
:104B5000001D411A521A0146081D0A60FFF7BDB830
:104B600030B5B0F10A024FEA900E71F100034EEA3F
:104B7000817EB0EB0E0061EB91014FEA101E4EEA10
:104B8000017E10EB0E0041EB11114FEA102E4EEAA0
:104B9000016E10EB0E0041EB11214FEA104E4EEA70
:104BA000014E10EB0E0041EB1141401841F10001A4
:104BB0004FEAD00040EA41704FEAD10110EB800586
:104BC0004FEA810444EA907444EB01046D1944EB0C
:104BD0000404521BA3414FF0000348BF0A3200D522
:104BE00030BD401C41F1000130BD00002DE9F04115
:104BF0001F46044603260168072A01F4006004DB0F
:104C000008B116A505E016A503E008B115A500E05A
:104C100015A521F010002060A069C01EA0610FB191
:104C2000401EA0612046FFF739FB4FB1D4E90121B6
:104C300038469047206A401C2062C01C206206E073
:104C4000206AFAE7D4E9012115F8010B9047761E96
:104C5000F8D22046FFF738FBBDE8F0814E414E0008
:104C60006E616E00494E4600696E660010B543697C
:104C700013B1AFF3008001E0FFF700FE012010BD8B
:104C8000128800F1240182840022C2840122EDE70F
:104C900011684FF0FF32E9E72DE9F04781461646EB
:104CA0008AB0334878440DC88DE80D003048784408
:104CB000801C03AC0DC884E80D0041F69B3008440D
:104CC000372190FBF1F290FBF1F5A5F1800501FB96
:104CD00012041B3C02D56442012000E00020DFF8F2
:104CE00090A080460027FA44AAF1BE0A0DE0E00732
:104CF00009D03246684607EB47010AEB810100F014
:104D0000B0FB8DE8070064107F1C002CEFD1184F1A
:104D10007F44AC3F18E0E80714D007EB04100DF116
:104D2000180A90E80E008AE80E00C068F04201D12F
:104D300098190890324606A903A800F092FB03AB2D
:104D400083E807006D10641C002DE4D132466946EB
:104D5000B8F1000F03A802D000F06FFB01E000F0F3
:104D600080FBC9E90001C9F808200AB0BDE8F08756
:104D70002017000070B516460C46054600F048F8AE
:104D8000036893F80101012806D0FF2C0FD8185DA5
:104D900068B101202C7070BDD3F80701324621465E
:104DA00003F2071303442846BDE8704018474FF04C
:104DB000FF3070BD10B500F041F8BDE8104000F0C4
:104DC00038B870477546FFF7A9FEAE46050069463C
:104DD000534620F00700854618B020B5FBF7ECFBE2
:104DE000BDE820404FF000064FF000074FF00008EC
:104DF0004FF0000B21F00701AC46ACE8C009ACE86D
:104E0000C009ACE8C009ACE8C0098D467047000095
:104E100010B5FFF787FE001D10BD00BF150900008B
:104E200010B50446AFF300802046BDE81040FBF704
:104E300020BA002801D000F069B8704710B50128E9
:104E400005D0002103A000F067F8012010BD09A1E2
:104E5000F8E7000053494752544D454D3A204F75ED
:104E600074206F662068656170206D656D6F727962
:104E7000000000003A2048656170206D656D6F721A
:104E80007920636F72727570746564004FF0013C35
:104E900050F8042B51F8043B9A4221D1A2EB0C03A9
:104EA000934313EACC1317D150F8042B51F8043B69
:104EB0009A4215D1A2EB0C03934313EACC130BD106
:104EC00050F8042B51F8043B9A4209D1A2EB0C0391
:104ED000934313EACC13DBD04FF00000704700BFC0
:104EE000D01A01BAB1FA81F101F0180122FA01F0E9
:104EF000CB40C1F12001DBB2C0B2C01A2CFA01F3E1
:104F0000D11A914311EAC311E6D170470149182023
:104F1000ABBEFEE72600020070B505460C460A202F
:104F200000E06D1C00F011F835B128780028F8D1A8
:104F300002E0641C00F009F814B120780028F8D1D0
:104F4000BDE870400A20AFF3008008B569468DF8CF
:104F500000000320ABBE08BD5FEA400C08BF91F023
:104F6000000F4FEA8C234FEAC12243EA51514FEA26
:104F70001C5018BF00F5F0404FEA300018BF41F058
:104F800000415FEA6C5C00F02980BCF1FF3F08BF84
:104F900040F080407047130C06BF12044FF0100C15
:104FA0004FF0000C130E04BF12020CF1080C130F8B
:104FB00004BF12010CF1040C930F04BF92000CF11A
:104FC000020CD30F04BF52000CF1010C11464FF03C
:104FD0000002A0F11F00A0EB0C00704711F0004F81
:104FE00008BF704731F000413FF4D5AF0B0C06BF4E
:104FF00009044FF0100C4FF0000C0B0E04BF090217
:105000000CF1080C0B0F04BF09010CF1040C8B0F01
:1050100004BF89000CF1020CCB0F04BF49000CF156
:10502000010CCCF12003A0EB0C0022FA03F302FAEE
:105030000CF241EA030100F10100704720F07F4CBF
:1050400080EA030023F07F47ACEB070303F57C53B2
:1050500000F0004003F1FF032DE980494FEA154BB2
:1050600009B44FEA144325EA0B4E24EA03480FF231
:10507000042606EB132749083E785FEA320203FB59
:105080000667C7F5000707FB06F64FEA54374FEAF5
:10509000D64606F1020607FB066CCCF1005C4FEA2F
:1050A0001C472CEA074C07FB06F40CFB06F504EB47
:1050B00015464FEA961634BF00204FF000404FEAE5
:1050C000D13706FB07FC4FEA1C4C0CFB0BF7D21B3D
:1050D00003FB0CF761EB07010CFB0EF7B0EB07408D
:1050E00072EB17420CFB08F734BFA2EB0742B2EB9E
:1050F000074261EB17414FEA0C444FEA910706FB68
:1051000007FC4FEA1C4C0CFB0BF7B0EBC74072EBF3
:10511000573203FB0CF734BFA2EBC742B2EBC742D6
:1051200061EB57310CFB0EF7B0EBC70072EB577217
:105130000CFB08F734BFA2EBC702B2EBC70261EB6E
:105140005771039F4FEA816141EA921104EBCC044D
:105150004FEAD1374FEA826206FB07FC42EA90121F
:105160004FEA80604FEA1C4C0CFB0BF7D21B03FB91
:105170000CF761EB07010CFB0EF7B0EB074072EB8D
:1051800017420CFB08F734BFA2EB0742B2EB074211
:1051900061EB17414FEA8C554FEA910704EB9C24D1
:1051A00006FB07FC4FEA1C4C0CFB0BF7B0EBC740AF
:1051B00072EB573203FB0CF734BFA2EBC742B2EBE2
:1051C000C74261EB57310CFB0EF7B0EBC70072EB37
:1051D00057720CFB08F734BFA2EBC702B2EBC70251
:1051E00061EB577115EB4C254FEA816141EA921151
:1051F0004FEA82624FEAD13742EA901206FB07FC7F
:1052000044F100044FEA80604FEA1C4C0CFB0BF7A2
:10521000D21B03FB0CF761EB07010CFB0EF7B0EBA5
:10522000074072EB17420CFB08F734BFA2EB0742B2
:10523000B2EB074261EB174115EB1C154FEA8131C8
:1052400041EA92414FEA823242EA90424FEA80308C
:105250004FEA0C7644F1000448EA03434EEA0B4857
:105260004FF0000EB2EB080C71EB030724BF62464F
:1052700039464EEB0E0E4FF0000B001852414941DB
:105280004BEB0B0BB2EB080C71EB03077BF1000B44
:1052900024BF624639464EEB0E0E4FF0000B00184D
:1052A000524149414BEB0B0BB2EB080C71EB03077E
:1052B0007BF1000B24BF624639464EEB0E0E51EADD
:1052C000020718BF46F0010616EB0E7655F10002F4
:1052D00054F1000103D5BDE88901BDE80088BDE8AF
:1052E0008901BDE80048B619524141EB0101A3F123
:1052F0000103704780807F7E7D7C7B7A797877762A
:1053000076757473727171706F6E6E6D6C6C6B6AA2
:105310006A69686867666665646463636261616040
:10532000605F5F5E5E5D5D5C5C5B5B5A5A595958BD
:105330005857575656555555545453535252525127
:10534000515050504F4F4F4E4E4D4D4D4C4C4C4B7D
:105350004B4B4A4A4A4949494848484747474746C4
:105360004646454545444444444343434342424200
:1053700042414141002B26D4770021D01CB54FEA91
:10538000370703B44FF010004FF010014FF000004A
:105390000FBCBDE810400BF1010BBBF1010F08BFC2
:1053A0005FEA170722BF12F1010211F101014FF06C
:1053B000004143F1000300F0004043EA0000704761
:1053C000F9D35708DAE746EA064613F1400F4FEAE9
:1053D00016461FDD13F1200FDFBF16430A460021DA
:1053E00020335B42C8D0C3F1200746EA064602FAE2
:1053F00007F74FEA164646EA0706C3F1200722FAE6
:1054000003F201FA07F721FA03F14FF0000342EA31
:105410000702B1E746EA020646EA06464FEA1646A2
:1054200046EA0106BCBF46EA0646360C4FF00003CA
:105430004FF000024FF000019EE72DE9C04893466F
:1054400030B491E8380007C831EA400C48BF34EA6C
:10545000430C03D5FFF7F2FDFFF78CFFF0BCBDE86E
:1054600000882DE9C048934630B491E8380007C859
:1054700010F0804F08BF13F0804F03D100F005F803
:10548000FFF778FFF0BCBDE8008820F07F4780EA96
:10549000030023F07F4C07EB0C03A3F57C5300F0D3
:1054A0000040A3F1FE0392F0000F00F0B38095F0EE
:1054B000000F00F077802DE901494FEA11404FEAD3
:1054C000144621EA004800FB06FC24EA064708FBD4
:1054D00006F607FB08F800FB07F718EB06484CEB4D
:1054E000164C4FEA124B18EB07484FEA15464CEBA7
:1054F000174022EA0B4E0BFB06FC25EA06470EFB83
:1055000006F607FB0EFE0BFB07F71EEB064E4CEBF9
:10551000164C4FF000061EEB074E4CEB174B18EBEA
:105520000B0840F1000018EB0E0B58EB000840F19F
:1055300000008F1A4FF000013CBFC943661B14BF27
:10554000B5EB040C00213CBFC943F61B4FEA1744DE
:105550004EEA8E0E27EA04454FEA1C4704FB076219
:105560002CEA074C05FB07F70CFB05F604FB0CFCCB
:1055700016EB074642EB174216EB0C4642EB1C4279
:105580001BEB060658EB0202414146EA9E0601D596
:10559000BDE80189B619524141EB0101A3F10103B4
:1055A000BDE801894FEA14454FEA114724EA054650
:1055B00021EA074C05FB07F406FB07F70CFB06F195
:1055C00005FB0CFC11EB074144EB17444FEA124773
:1055D00011EB0C4144EB1C4422EA074C05FB07F29B
:1055E00006FB07F70CFB06F605FB0CFC16EB074663
:1055F00042EB174216EB0C4642EB1C456A1854F17D
:10560000000148BF7047B619524141EB0101A3F1B7
:105610000103704795F0000F37D04FEA11424FEA6F
:10562000144721EA024624EA074C02FB07F106FB75
:1056300007F70CFB06F402FB0CFC14EB074441EBF0
:1056400017414FEA154714EB0C4441EB1C4125EA86
:10565000074C02FB07F506FB07F70CFB06F602FBFF
:105660000CFC16EB074645EB174516EB0C4645EBD5
:105670001C42121951F1000148BF7047B61952413E
:1056800041EB0101A3F1010370474FEA14454FEAD2
:10569000114724EA054621EA074C05FB07F106FB02
:1056A00007F70CFB06F24FF0000605FB0CFC12EBB3
:1056B000074241EB174112EB0C4251EB1C4148BF32
:1056C0007047921841EB0101A3F1010370474900B3
:1056D00050EAC12018BF04204A0D18BF40F0010055
:1056E00040F2FF72B2EB515F08BF40F002000128A8
:1056F00008BF0520704730380A2801D201207047C2
:105700000020704710B500290AD00878002807D07B
:1057100005487844FFF7BAFB002801D0002010BDEF
:105720000248784410BD0000EE0C0000E60C0000BA
:1057300010B500290AD00878002807D00548784419
:10574000FFF7A4FB002801D0002010BD02487844D8
:1057500010BD0000DE0C0000D60C000021F000425D
:10576000A2F16052B2F5801F01F0004328BFD2F1D0
:105770007F6C0BD95FEA001C43EAC20242EB507017
:1057800018BF704728BF20F001007047B2F5801F96
:10579000BCBF184670474FEA410C1CF5001F02D2EF
:1057A000084600F079BD70B500F03CFB00000089B0
:1057B000FFF7F6BF4FF00040A0F5800070470000F3
:1057C00010B591EA030F48BF83F0004300F1BC839A
:1057D000841A71EB030C05D2121943EB0C03001B66
:1057E00061EB0C01DFF824E14FEA1154A4EB135CE8
:1057F0001EEA430F18BF9EEA445F73D023EA0E03EC
:10580000DCF1200E21EA045143F4801332D322FA52
:105810000CFE10EB0E0023FA0CFE41EB0E01CCF156
:10582000200E03FA0EFE10EB0E0051F10001B1F54F
:10583000801FCCF1200E32D201EB045112FA0EF28D
:10584000BDE8104058BF7047401C38BF5FEA4202B5
:1058500018BF7047002814BF20F0010041F100017B
:105860004FEA410313F5001F38BF7047A1F1C04153
:1058700000F026BB012A43EB0302ACF1200CDCF163
:105880001F0E32BF4FF0000E23FA0CF310EB030093
:1058900041EB0451B4EB115FD0D0A1EB045101F501
:1058A000801149085FEA300001EB04510ED350F13A
:1058B000000038BF12FA0EFE08D1BDE81040C9E75B
:1058C000401C38BF5FEA4202CAD1C3E7BDE81040BE
:1058D0004FEA410313F5001F38BF7047A1F1C041E3
:1058E00000F0EEBA9EEA445F08D011EA5E0FBDE810
:1058F000104004BF01F0004100207047BDE8104097
:1059000070B500F08FFA00BF64FBBE3E0000E0FF00
:10591000491058BFC1F140415B1058BFC3F140432B
:105920008B42EFF3008070472DE9C04130B4DFF8BF
:10593000A0C23CEA111418BF3CEA131400F0EC803A
:1059400081EA03051CEA111444EAD57418BF1CEA65
:10595000131500F0C780A4EB05044FF0004545EA9D
:10596000C12145EAC32341EA505143EA525304F1AD
:105970007F74994204F500344FEAC0204FEAC222F6
:1059800008BF904200F09C804FEA13650FF240166A
:10599000765D4FEA134506FB05F7C7F1807706FBF6
:1059A00007F74FEAD737A7FB03687642C8F5803878
:1059B000A7FB06CE38BFA8F1010807FB08E64FF0A9
:1059C000000EA6FB028CE6FB03CEDCF1000CCEF150
:1059D000004E38BFAEF1010EA6FB0C584FF0000789
:1059E0004FF00005E6FB0E87A1FB08C6A0FB07CE23
:1059F00016EB0E0645F10005E1FB076515F1E04EDB
:105A00007EBFA4F580345FEA46066D4116F180073B
:105A100045F100054FEA17274FEA066647EA056792
:105A2000A6F1DE46B6F1805F4FEA15251FD938464C
:105A300024F0010C05EBC471BCF1FE6F01EB0C11FD
:105A400002D8F0BCBDE8008124425CBF01F5801E95
:105A50009EEAC47F02D4F0BCBDE80081244238D461
:105A6000F0BCA1F1C041BDE8004100F029BA4FEA05
:105A7000D22242EA43524FEAD323A7FB02864FEADF
:105A8000D02040EA415007FB03661EEA0E0F4FEAA2
:105A9000D12105FB026658BFA6EB0056B6EB0056B7
:105AA0004FEA520E4EEAC37E18EB0E0E56EB530E23
:105AB000BDD518EB02085E417F1C55F10005B6E725
:105AC0004FF480154FF000074FF000064FF000082C
:105AD000ADE7F0BC4FF0000001F1C04101F0004122
:105AE000BDE8008111EA0C1F0CEA131500D00CE090
:105AF00013EA0C1F00F025804FF00000F0BC81EA93
:105B0000030101F00041BDE80081F0BCBDE80041A7
:105B100081EA030100F0D4B9F0BCBDE8004170B5E2
:105B200000F080F9097EFC3E00F007B881EA03012D
:105B30004FF0000001F00041704781EA030100F0DE
:105B4000BFB9F0BCBDE800414FF0000021497047EB
:105B5000FFFDFBF9F7F5F4F2F0EEEDEBE9E8E6E432
:105B6000E3E1E0DEDDDBDAD8D7D5D4D3D1D0CFCDB9
:105B7000CCCBCAC8C7C6C5C4C2C1C0BFBEBDBCBBF2
:105B8000BAB9B8B7B6B5B4B3B2B1B0AFAEADACABED
:105B9000AAA9A8A8A7A6A5A4A3A3A2A1A09F9F9EC7
:105BA0009D9C9C9B9A999998979796959594939379
:105BB000929191908F8F8E8E8D8C8C8B8B8A898910
:105BC0008888878786858584848383828281818093
:105BD0000000FF070000F87F4FEA1153A3F5806330
:105BE000D3F11E03A8BFD3F1200C08DB4FF0004215
:105BF00042EAC12252EA505232FA03F07047094297
:105C00000BD4102BC4BF0020704703F5787CBCF187
:105C1000FF3F05D04FF0FF3070474FF00000704756
:105C200070B500F0FFF800BF499224800020704753
:105C3000F0E7B0FA80F310FA03F10AD0C3F11D03C4
:105C400003F580634FEA41504FEA035202EBD12142
:105C500070474FF00000704751EA030C17D41CF551
:105C6000801F58BFBCF5801F00F10680994218BF05
:105C7000704708BF9042704707D711F5801F58BF83
:105C800013F5801F19D499427047894270471CF55B
:105C9000801F08D5BCF5801FF7D58B4218BF704711
:105CA00008BF824270474FF4001C1CEB410F38BF05
:105CB0001CEB430F01D28B42704770B500F0B2F875
:105CC000922449004FF000514FF08053FFF720BE5F
:105CD000DFF848C170B51CEA111E1EBF1CEA13157F
:105CE0009EEA0C0F95EA0C0F00F06F8081EA030426
:105CF00023EA4C134EEAD47E21EA4C1141F4801180
:105D000043F48013AE44A1FB024CA0FB0365AEF14B
:105D10007F7E361955EB0C05A1FB034C4CF10003BB
:105D2000A0FB021C16EB0C06654153F1000309426F
:105D300018BF46F0010613F4007F0BD14FEA033180
:105D40004FEA0530340341EA155140EA16506FF02E
:105D500003020AE04FEAC3214FEAC520F40241EAF8
:105D6000555140EA56506FF0020202EB2E4201EB11
:105D7000025585EACE710AD05FEA440C18BF24F0C0
:105D8000004450F1000041F1000120EAD47040F2DB
:105D9000FE7C624500D270BDA84214BF4FF0804423
:105DA0004FF04044002E08BF0024BEF1806FA8BF12
:105DB000A1F1C041BDE8704080F282804FF0000048
:105DC00001F1C04101F0004170479EEA0C0F0CEA5E
:105DD000131518BF95EA0C0F06D04FF0000081EAAA
:105DE000030E0EF0004170BD00F01CF88900013E6A
:105DF00000F007B800F009B84FEA430C5FEA5C5CBA
:105E000008D081EA030100F05BB84FEA410C5FEA79
:105E10005C5CF6D14FF00000014970470000FF07BD
:105E20000000F87F0EF1020E2EF0030E5EF8046BF8
:105E3000364205D4012A43EB030515F5001F12D89D
:105E4000012841EB010C1CF5001F0CD80ED14FEAC4
:105E5000D17C15F5001F0CEB4C0C0CF1020C08BFAB
:105E60004CEBD37C04E04FF0080C01E04FEAD37C0C
:105E70000CEB4C0526FA05F606F00706B6F1040C05
:105E800006D20EEB860CBDE870404CF0010C60476A
:105E9000DFE80CF0090B02024FF000414FF0000068
:105EA000A1F5002170BD19461046012851EB0104EF
:105EB00018BFD4F5001484BF002001F0004170BD6C
:105EC0000808A0F500114FEA3101704753EA010CB0
:105ED00017D41CF5801F58BFBCF5801F00F1068049
:105EE0008B4218BF704708BF8242704707D713F52F
:105EF000801F58BF11F5801F19D48B4270479B42F9
:105F000070471CF5801F08D5BCF5801FF7D5994256
:105F100018BF704708BF904270474FF4001C1CEB3D
:105F2000430F38BF1CEB410F01D2994270470FB4A9
:105F30000CBC03BCFFF7C1BE10B591EA030F48BF0C
:105F400083F000433FF544AC841A71EB030C07D295
:105F500012198CF0004C43EB0C03001B61EB0C019D
:105F6000DFF8A4E14FEA1154A4EB135C1EEA430FDF
:105F700018BF9EEA445F00F0B08023EA6E035242ED
:105F800021EA0451C3EB6E0338BF5B1EDCF1200E27
:105F900025D322FA0CFE10EB0E0043FA0CFE41EB67
:105FA0000E01CCF1200E03FA0EFE10EB0E0051F1A3
:105FB0000001CCF1200E29D412FA0EF201EB0451AB
:105FC000BDE8104058BF7047401C1CBFB2F1004FE5
:105FD000704700280CBF491C20F00100704712EBED
:105FE000020E43EB030218BF4FF0010E4EEA4202CD
:105FF000ACF1200CDCF11E0E54D943FA0CFE10EB70
:106000000E0051F1FF31CCF11E0ED5D50EF1010E6F
:1060100012FA0EFE404141EB010101EB445C5FEAE4
:106020005C5C10D910EBDE7001EB045138BFBEF19F
:10603000004FBDE8104018BF704700280CBF491C36
:1060400020F00100704730D24FEAD42C11F5001136
:1060500024F400641BD0B1FA81F20B3AA41AA41EF6
:10606000D2F12003914030FA03F31943904001EB41
:10607000CC71002C01EB0451BDE81040A8BF704763
:1060800001F1C0414FF0000001F000417047B0FA4B
:1060900080F310FA03F100D110BDE41A173C480553
:1060A000C90AE4E701EB045110BD491001EB0451AA
:1060B000BDE810404FEA300002E04FF000017047A9
:1060C0004A0008BF0042F8D0B2F5001F28BF704751
:1060D00001F000414FF0000070479EEA445F07D096
:1060E00011EA5E0FBDE8104004BF00210020704798
:1060F000BDE8104070B5FFF795FE00BF40DFF63EEB
:1061000083F00041104670470000E0FF43004FEA73
:10611000D30C4FEA3C0C43401FBF40070CF16051C9
:1061200013F0FE4F70471CF0006F03D100200CF0FD
:10613000004170470CF0004343EA507010B540EA4C
:10614000CC0000F063F800BF000000924FEA0001AD
:10615000FFF7B6BE4FF000414FF00000A1F500215F
:106160007047401058BFC0F14040491058BFC1F1BE
:1061700040418142EFF3008070470000B0FA80F3A5
:1061800010FA03F2C3F19D030AD0D90501EB1220E6
:10619000530638BF704700F1010008BF20F001002E
:1061A0007047000050EA010C00F113801CF5000F4D
:1061B00058BFBCF5000F01D48842704707D710F5CF
:1061C000000F58BF11F5000F15D48842704789425F
:1061D00070471CF5000F04D5BCF5000FF7D58142C0
:1061E00070474FF0807C1CEB400F38BF1CEB410F19
:1061F00001D28142704710B500F008F8922449009E
:106200004FF000504FF08051FFF7ABBF0EF1020E80
:106210002EF0030E5EF8044B244204D44FEA4102F0
:10622000B2F17F4F11D84FEA4003B3F17F4F0CD842
:106230000ED14FEAD07CB2F17F4F0CEB4C0C0CF13D
:10624000020C08BF4CEBD17C04E04FF0080C01E0DD
:106250004FEAD17C0CEB4C0324FA03F404F007045E
:10626000B4F1040C06D20EEB840CBDE810404CF0E7
:10627000010C6047DFE80CF0070802024FF0004015
:10628000A0F5800010BD0846420018BFD2F1807210
:1062900088BF00F0004010BDFF2141EAD050C0058A
:1062A000704751EA000C00F113801CF5000F58BF35
:1062B000BCF5000F01D48142704707D711F5000FDC
:1062C00058BF10F5000F15D48142704789427047BE
:1062D0001CF5000F04D5BCF5000FF7D588427047B8
:1062E0004FF0807C1CEB410F38BF1CEB400F01D2FC
:1062F0008842704780EA010081EA000180EA0100DB
:10630000FFF779BFFEF747B904000008000000005E
:10631000000000020001000010000000000000006A
:1063200000000000303132333435363738394142DD
:1063300043444546403058003031323334353637E7
:10634000383961626364656640307800024000005D
:10635000000000A00000000005400000000000C890
:10636000000000000C4000000000409C0000000005
:10637000194000000020BCBE0000000034400000B6
:10638000BFC91B8E00000004B5400000504BCFD0A9
:106390006607E2CF010000006C4100003E8251AA76
:1063A000DFEEA73401000000D9420000DCB5A0E216
:1063B0003A301F97FFFFFFFFB4450000FD25A0C83E
:1063C000E9A3C14FFFFFFFFFFF3F00000000008077
:1063D00000000000FF3F00000000008000000000FF
:1063E0002C65000800000020340000006C0100084B
:1063F0006065000834000020FC08000088010008E7
:106400001C00000043000000F8FFFFFF0C0000002C
:106410000E0000000F0000002E0000001001000020
:1064200043000000F8FFFFFF004040404040404074
:106430004040414141414140404040404040404057
:1064400040404040404040404005020202020202FB
:10645000020202020202020202202020202020204A
:10646000202020020202020202029090909090905E
:10647000101010101010101010101010101010101C
:106480001010101002020202020288888888888890
:10649000080808080808080808080808080808087C
:1064A0000808080802020202400000000000000084
:1064B00000000000000000000000000000000000DC
:1064C00000000000000000000000000000000000CC
:1064D00000000000000000000000000000000000BC
:1064E00000000000000000000000000000000000AC
:1064F000000000000000000000000000000000009C
:10650000000000000000000000000000000000008B
:10651000000000000000000000000000000000007B
:1065200000000000000000000000000000A24A047B
:106530000000000000000000010203040607080933
:106540000000000001020304010203040607080919
:106550000204060800000000000000000000000027
:0400000508000131BD
:00000001FF
